S0130000536572766F5F4D6F746F722E7372656392
S113000045C000004BC0000049C0000047C00000CC
S113001045C0000043C0000041C000003FC00000D4
S11300203DC000003BC0000039C0000037C00000E4
S113003035C0000033C0000031C000002FC00000F4
S11300402DC000002BC0000029C0000027C0000004
S113005025C0000023C0000021C000001FC0000014
S11300601DC000001BC0000019C0000017C0000024
S113007015C0000013C0000011C000000FC0000034
S11300800DC000000BC0000009C0000011241FBEF9
S1130090CFEFD0E1DEBFCDBF13D03EC0B1CF8FB51F
S11300A082608FBD8EB588618EBD8FB580688FBD2F
S11300B08EB582608EBD8FE39CE997BD86BD0895A1
S11300C087B3806287BBEBDF84E195E09BBD8ABD8B
S11300D02FEF83ED90E3215080409040E1F700C082
S11300E0000088EB9BE09BBD8ABD2FEF83ED90E37E
S11300F0215080409040E1F700C000008CE592E17F
S11301009BBD8ABD2FEF83ED90E32150804090404A
S10F0110E1F700C00000D8CFF894FFCF46
S9030000FC
